{
  "contractName": "CryptoCurrencyStore",
  "abi": [
    {
      "anonymous": false,
      "inputs": [
        {
          "indexed": false,
          "internalType": "address",
          "name": "sender",
          "type": "address"
        }
      ],
      "name": "DepositLog",
      "type": "event"
    },
    {
      "inputs": [
        {
          "internalType": "address",
          "name": "",
          "type": "address"
        }
      ],
      "name": "balances",
      "outputs": [
        {
          "internalType": "uint256",
          "name": "",
          "type": "uint256"
        }
      ],
      "stateMutability": "view",
      "type": "function",
      "constant": true
    },
    {
      "inputs": [],
      "name": "lockedState",
      "outputs": [
        {
          "internalType": "bool",
          "name": "",
          "type": "bool"
        }
      ],
      "stateMutability": "view",
      "type": "function",
      "constant": true
    },
    {
      "inputs": [],
      "name": "deposit",
      "outputs": [],
      "stateMutability": "payable",
      "type": "function",
      "payable": true
    },
    {
      "inputs": [],
      "name": "withdraw",
      "outputs": [],
      "stateMutability": "nonpayable",
      "type": "function"
    },
    {
      "inputs": [],
      "name": "getBalance",
      "outputs": [
        {
          "internalType": "uint256",
          "name": "",
          "type": "uint256"
        }
      ],
      "stateMutability": "view",
      "type": "function",
      "constant": true
    },
    {
      "inputs": [],
      "name": "getContractAddress",
      "outputs": [
        {
          "internalType": "address",
          "name": "",
          "type": "address"
        }
      ],
      "stateMutability": "view",
      "type": "function",
      "constant": true
    }
  ],
  "bytecode": "0x608060405234801561001057600080fd5b506105c7806100206000396000f3fe6080604052600436106100555760003560e01c806312065fe01461005a57806327e235e31461008557806332a2c5d0146100c25780633ccfd60b146100ed5780636591edba14610104578063d0e30db01461012f575b600080fd5b34801561006657600080fd5b5061006f610139565b60405161007c9190610476565b60405180910390f35b34801561009157600080fd5b506100ac60048036038101906100a7919061035b565b610141565b6040516100b99190610476565b60405180910390f35b3480156100ce57600080fd5b506100d7610159565b6040516100e49190610420565b60405180910390f35b3480156100f957600080fd5b50610102610161565b005b34801561011057600080fd5b506101196102a5565b604051610126919061043b565b60405180910390f35b6101376102b8565b005b600047905090565b60006020528060005260406000206000915090505481565b600030905090565b60008060003373ffffffffffffffffffffffffffffffffffffffff1673ffffffffffffffffffffffffffffffffffffffff168152602001908152602001600020549050600081116101b157600080fd5b60003373ffffffffffffffffffffffffffffffffffffffff16826040516101d79061040b565b60006040518083038185875af1925050503d8060008114610214576040519150601f19603f3d011682016040523d82523d6000602084013e610219565b606091505b505090508061025d576040517f08c379a000000000000000000000000000000000000000000000000000000000815260040161025490610456565b60405180910390fd5b60008060003373ffffffffffffffffffffffffffffffffffffffff1673ffffffffffffffffffffffffffffffffffffffff168152602001908152602001600020819055505050565b600160009054906101000a900460ff1681565b346000803373ffffffffffffffffffffffffffffffffffffffff1673ffffffffffffffffffffffffffffffffffffffff168152602001908152602001600020600082825461030691906104ad565b925050819055507f4b08179a4db775de80639c432fcddeae691225ee8938376c4c70850c7340c9493360405161033c9190610420565b60405180910390a1565b6000813590506103558161057a565b92915050565b60006020828403121561036d57600080fd5b600061037b84828501610346565b91505092915050565b61038d81610503565b82525050565b61039c81610515565b82525050565b60006103af60148361049c565b91507f4661696c656420746f2073656e642045746865720000000000000000000000006000830152602082019050919050565b60006103ef600083610491565b9150600082019050919050565b61040581610541565b82525050565b6000610416826103e2565b9150819050919050565b60006020820190506104356000830184610384565b92915050565b60006020820190506104506000830184610393565b92915050565b6000602082019050818103600083015261046f816103a2565b9050919050565b600060208201905061048b60008301846103fc565b92915050565b600081905092915050565b600082825260208201905092915050565b60006104b882610541565b91506104c383610541565b9250827fffffffffffffffffffffffffffffffffffffffffffffffffffffffffffffffff038211156104f8576104f761054b565b5b828201905092915050565b600061050e82610521565b9050919050565b60008115159050919050565b600073ffffffffffffffffffffffffffffffffffffffff82169050919050565b6000819050919050565b7f4e487b7100000000000000000000000000000000000000000000000000000000600052601160045260246000fd5b61058381610503565b811461058e57600080fd5b5056fea2646970667358221220c17f6ee7447231f77f02c5794fa8dba6310373d57faaceb2c0a3a2b50e918b1564736f6c63430008000033",
  "immutableReferences": {},
  "source": "// SPDX-License-Identifier: MIT\npragma solidity ^0.8.0;\n\ncontract CryptoCurrencyStore {\n    mapping(address => uint256) public balances;\n    event DepositLog(address sender);\n\n    function deposit() public payable {\n        balances[msg.sender] += msg.value; //\n        emit DepositLog(msg.sender);\n    }\n\n    bool public lockedState; // false\n\n    function withdraw() public {\n        uint256 userBalance = balances[msg.sender]; //\n        require(userBalance > 0); //0\n        (bool sent, ) = msg.sender.call{value: userBalance}(\"\"); //fallback\n        require(sent, \"Failed to send Ether\"); //sentfalse\n        balances[msg.sender] = 0; //0\n    }\n\n    function getBalance() public view returns (uint256) {\n        return address(this).balance;\n    }\n\n    function getContractAddress() public view returns (address) {\n        return address(this);\n    }\n}\n",
  "sourcePath": "D:/udemy/personalBlockchain/contracts/CryptoCurrencyStore.sol",
  "compiler": {
    "name": "solc",
    "version": "0.8.0+commit.c7dfd78e.Emscripten.clang"
  },
  "schemaVersion": "3.3.4",
  "updatedAt": "2022-05-10T07:17:15.192Z",
  "networkType": "ethereum",
  "devdoc": {
    "kind": "dev",
    "methods": {},
    "version": 1
  },
  "userdoc": {
    "kind": "user",
    "methods": {},
    "version": 1
  }
}